:100000006F00807300000000BA040000BE0400000E
:1000100000000000000000000000000000000000E0
:1000200000000000000000000000000000000000D0
:1000300006070000000000000807000000000000A4
:100040000A0700000C0700000E0700001007000060
:100050001207000014070000160700001807000030
:100060001A0700001C0700001E0700002007000000
:1000700022070000240700002607000028070000D0
:100080002A0700002C0700002E07000030070000A0
:1000900032070000340700003607000000000000AF
:1000A000511126C022C206C4828282441244A24058
:1000B000310182803D432A876373C3029377F7003F
:1000C000BDEFADE5937606FF3D8ABA960CC34CC3EF
:1000D0000CC74CC74107E36BD7FE11E28280B30621
:1000E000C3408A069702000096966780A600230701
:1000F000B700A306B7002306B700A305B700230582
:10010000B700A304B7002304B700A303B700230379
:10011000B700A302B7002302B700A301B700230171
:10012000B700A300B7002300B700828093F5F50F56
:1001300093968500D58D93960501D58D61B79396DD
:1001400027009702000096968682E78086FA9680BE
:10015000C1171D8F3E96E374C3F8A5B7EFF25FF4A5
:1001600041111357354002C202C402C60D8B8946A5
:10017000AA846307D7048D466308D70401451DEFA1
:100180009386F4FF05463A85636AD6023714014028
:100190001145130404802EC08545EF00607F93F75E
:1001A000740002478544B397F4007C8222858D4712
:1001B0004C003AC63EC4EF00C06D05454101F5B59F
:1001C000414537140140C1BF3714014013050002F7
:1001D00013040440C9B7935735408D8B0947638892
:1001E000E7020D476388E7029DEBB717014093874D
:1001F0000780EFF2FFEA05471D893315A7002E8619
:1002000093150501C1813E85EF00007679BDB717D2
:100210000140C5B7B717014093870740D9BF828017
:1002200023160500232805000CC150C114C5828087
:10023000311122C826C681428547B396570093974D
:10024000620093F6F60F3EC28145939745003EC08B
:100250009397350001463EC482470323050093046B
:100260008600B303F3003384C300A69383C703005F
:100270001820F58F758F1337170093B717008A076B
:100280000E075D8F83470408F58F93B71700960715
:10029000D98F03C7030883430410758F13371700E2
:1002A0001207B3F37600D98F014763940300130755
:1002B00000F8D98F024712443A932693034703105C
:1002C00003234500758F22932244133717001A0722
:1002D00022933293D98F2300F3000506A147E31D33
:1002E000F6F68505E393C5F68502E397B2F442443A
:1002F000B2445101828050259307F00F37F700E098
:10030000B397C7001CCB4C351845931666003713BE
:100310000140BA961397350036971423A147232638
:10032000D34085462328D3408342170023265340D9
:100330002328D34083422700232653402328D34039
:1003400083423700232653402328D340834247006B
:10035000232653402328D34083425700232653406B
:100360002328D34083426700232653402328D340C9
:1003700078332326E3402328D340232AF300C147C0
:100380002328F3001387150093E785012326F30044
:100390001377F70F9D4663E8E60058B5B71701409D
:1003A0004147D8CB828093071600A306050093F738
:1003B000F70F63E4F6005CA5D5B723060500F9BF87
:1003C00093860504715793850524938706FC98A3AB
:1003D00098B3B8A3B8B3D8A3D8B3F8A3F8B3A10718
:1003E000E397D7FE93860704E391D5FE8280EFF270
:1003F0003FCB2A84C14541459533C1454545B93B6D
:10040000C1454945A13BC1454D45893BC145514584
:10041000B133C14561459933C14569458133C14512
:100420006D452D3BC1457145153BC14575453D3376
:10043000C14579452533C1457D450D334C40B7272E
:1004400002409C4B2285AD3F0C442285953FB1B9BB
:10045000EFF21FC52A84E93B1C4458405CC018C415
:10046000A9B1EFF2FFC38146C142A1430D431C492C
:10047000939076000146958F93B71700B307F0402D
:1004800093F7F70F814513144600184106972297FA
:100490002E971CA38505E39A55FE0506E31476FE08
:1004A0008506E39666FC1C49850763E5F6001CC9D2
:1004B0004537E5BE23280500E5BF7300203001A0C5
:1004C000B7E700E0056723A0E710B7F700E023A235
:1004D00007001307F00F98CB23A407008280EFF2E8
:1004E0003FBC8545130500036521C1B6EFF25FBB34
:1004F0001301C1FC2A842EC2B28481451306C002B6
:10050000280036C0453E85450545A52122856D2C30
:10051000924782462C003EC4930700083ECE9307C4
:1005200000103ED0930700403ED2930700023ED415
:100530002285896726C636CA3ED602C802CC02D8B2
:10054000292E1301410395B6EFF29FB501118545A0
:10055000056502C002C202C402C602C802CA02CCB9
:10056000231E010035211144930700028A853715A7
:1005700001407C8022C4312E930700048A85371500
:1005800001407C8022C43126A1673EC685679387DF
:1005900007803EC8B70700023ECA6C009D4737354A
:1005A0000140FC86231D010019210546854537358C
:1005B0000140A1218545373501401D210561F5B474
:1005C000EFF21FAE138541D81D35FD54D53DB70759
:1005D000100063E6F400138541D86135814413852A
:1005E00041D88504093BE5B7EFF29FAB3706002001
:1005F000938641A013064600938541C0138541D8D8
:10060000053165B4B71702409843B706FFFC611186
:100610001367170098C3D8432166758FD8C39843D2
:10062000B706F7FEFD16758F98C39843B706FCFF13
:10063000FD16758F98C3D843C176FD16758FD8C344
:1006400037079F0098C702C002C2984FB706014003
:100650001367170098CFD842518FD8C29843C1660C
:1006600037060200558F98C3B716024009679C42AF
:10067000F18F3EC2824785073EC0924781E782479D
:10068000E397E7FEB71702409C431397E7006358D0
:10069000070685473EC2124785476310F706B7270E
:1006A00002409843C176FD16719B98C39843136727
:1006B000170098C3B7170240D843D8C3D843758FE3
:1006C000D8C3D843C166558FD8C39843B706000135
:1006D000558F98C3984393166700E3DD06FED84311
:1006E000B7160240719BD8C3D84313672700D8C3FD
:1006F0002147DC42B18BE39EE7FE2101828002C2EA
:1007000059BF01A001A001A001A001A001A001A06A
:1007100001A001A001A001A001A001A001A001A0D1
:1007200001A001A001A001A001A001A001A001A0C1
:1007300001A001A001A001A0970100209381810CDC
:10074000138101001705000013054542970500209D
:100750009385458B170600201306C68A63FAC500E9
:100760008322050023A0550011059105E3EAC5FE8B
:100770001705002013050589938541E26377B500CD
:10078000232005001105E36DB5FE93020008739068
:1007900002308D42739042809702000093828286DD
:1007A00093E232007390523017050000130525279D
:1007B00085244524EFF01FE597020000938282E034
:1007C00073901234730020301C4141677917F98F00
:1007D0001CC1232005002322050023240500B707A0
:1007E000024023260500138787006317E500D843DE
:1007F0001367F700D8C382801387C7016316E5002B
:10080000D8431367070FFDB7138707036318E50085
:10081000D8438566938606F0558FE9BF1387470452
:100820006315E500D843BD66C5BF1387870563160A
:10083000E500D843B7060F00C5B71387C706631690
:10084000E500D843B706F000C1BF13870708E314DB
:10085000E5FAD843B706000FC1B71841E177BD07E5
:1008600094517D8F9C45D58F9449D58FD449D58F90
:10087000944DD58FD44DD58FD451D58F9455D58FD8
:10088000D98F1CC1DC455CC19C411CC5DC415CC5E9
:1008900082809C45611122C226C013F7070113F321
:1008A000F70001C7D8413363E30092211377F60FB5
:1008B00029C78323050001471304800293048004A1
:1008C0008546B395E600B376B6006392D5029312DF
:1008D0002700BD46B396560093C6F6FFB3F37600E5
:1008E000B3125300B3E37200639787064CC9050740
:1008F000A146E317D7FC232075001307F00F637898
:10090000C70483234500A146130480029304800496
:100910000547B312D700337756006394E20213976A
:1009200026000117BD45B395E50093C5F5FFB3F368
:1009300075003317E300B363770063928702232ABD
:10094000550085064147E395E6FC232275001244D5
:10095000824421018280E39C97F80CC949BFE3924D
:1009600097FE23285500F1BF19C20CC982804CC9DB
:10097000828099C5371702405C4B5D8D48CB8280E1
:10098000B7170240D84B1345F5FF798DC8CB82804D
:1009900099C5371702401C4F5D8D08CF8280B7176D
:1009A0000240984F1345F5FF798D88CF82801A2138
:1009B0008D6793870704B6217D8F9E21D58FD62121
:1009C000D58FF621D58F9625D58FB625D58FD625EF
:1009D000D58FF625D58FD98F1EA19E291EA982807D
:1009E0001E2189C593E707041EA18280C207C18327
:1009F00093F7F7FBC207C183C5BF5E2101C6DD8D3A
:100A00004EA1828093C5F5FFFD8DDDBF828082807F
:100A1000AA858146014601457DA051119707000036
:100A20009387C71422C217040000130424141D8CDA
:100A300026C006C40984BE8411E41244A240824444
:100A40003101E9B77D1493172400A6979C43829740
:100A5000E5B7511122C2970700009387A71017042A
:100A60000000130424101D8C26C006C40984814490
:100A700063958402693F970700009387A70E1704C8
:100A800000001304A40E1D8C098481446392840227
:100A9000A2401244824431018280139724003E9781
:100AA000184385040297970700009387A70BC9B7DF
:100AB000139724003E971843850402979707000078
:100AC0009387470AE1B797F7FF1F9387A7539C4384
:100AD000AA838DE3138781D997F7FF1F23A4E752D9
:100AE00017F5FFFF13050552BA8709C51C4123A05E
:100AF000F1E2BA87D8437D437D556346E304638DB5
:100B0000030203A3870863000304931227009A9249
:100B100023A0C2000325031005463316E600518DBD
:100B20002320A31023A0D20889466397D3008326ED
:100B30004310558E2322C310930617000A07D4C30F
:100B4000BA978CC70145828097F7FFFF9387874B41
:100B500091C717050000130585EC5DBD828000007C
:080B6000480B0000E80500004D
:00000001FF
