:100000006F006075000000004A0400004E0400000C
:1000100000000000000000000000000000000000E0
:1000200000000000000000000000000000000000D0
:10003000F40500000000000026070000000000009A
:10004000280700002A0700002C0700002E070000E8
:1000500030070000320700003407000036070000B8
:10006000380700003A0700003C0700003E07000088
:100070004007000042070000440700004607000058
:10008000480700004A0700004C0700004E07000028
:100090005007000052070000540700000000000055
:1000A000511126C022C206C4828282441244A24058
:1000B000310182803D432A876373C3029377F7003F
:1000C000BDEFADE5937606FF3D8ABA960CC34CC3EF
:1000D0000CC74CC74107E36BD7FE11E28280B30621
:1000E000C3408A069702000096966780A600230701
:1000F000B700A306B7002306B700A305B700230582
:10010000B700A304B7002304B700A303B700230379
:10011000B700A302B7002302B700A301B700230171
:10012000B700A300B7002300B700828093F5F50F56
:1001300093968500D58D93960501D58D61B79396DD
:1001400027009702000096968682E78086FA9680BE
:10015000C1171D8F3E96E374C3F8A5B7EFF25FF4A5
:1001600041111357354002C202C402C60D8B8946A5
:10017000AA846307D7048D466308D70401451DEFA1
:100180009386F4FF05463A85636AD6023714014028
:100190001145130404802EC08545EF00700493F7C9
:1001A000740002478544B397F4007C8222858D4712
:1001B0004C003AC63EC4EF00607305454101F5B5F9
:1001C000414537140140C1BF3714014013050002F7
:1001D00013040440C9B72316050023280500232A69
:1001E0000500230C05000CC150C114C582803111DB
:1001F00022C826C681428547B3965700939762006E
:1002000093F6F60F3EC28145939745003EC0939703
:10021000350001463EC4824703230500930486004F
:10022000B303F3003384C300A69383C703001820ED
:10023000F58F758F1337170093B717008A070E07CE
:100240005D8F83470408F58F93B717009607D98F02
:1002500003C7030883430410758F13371700120771
:10026000B3F37600D98F014763940300130700F8B6
:10027000D98F024712443A9326930347031003236E
:100280004500758F22932244133717001A072293D3
:100290003293D98F2300F3000506A147E31DF6F63C
:1002A0008505E393C5F68502E397B2F44244B24470
:1002B0005101828054355C25139736009A07BA970E
:1002C0001845BA9737170140130607408542038344
:1002D0000700230666002308560003831700230641
:1002E00066002308560003832700230666002308C0
:1002F0005600038337002306660023085600038355
:100300004700230666002308560003835700230690
:10031000660023085600038367002306660023084F
:100320005600038377002306660023085600A14287
:10033000230A57002306560093E28601230657003E
:1003400082805C351D47850793F7F70F6368F700D8
:100350005CB5B71701404147D8CB82805C25A30626
:100360000500850793F7F70F6364F7005CA5D5B721
:1003700023060500F9BFEFF2BFD21C2D2A8491CBD2
:10038000B7F700E01307000598CB2D37230C0400C6
:1003900029BB58259307F00FB397E700938707FB16
:1003A00037F700E01CCB713F85471CACD5B793866F
:1003B0000504715793850524938706FC98A398B389
:1003C000B8A3B8B3D8A3D8B3F8A3F8B3A107E397F9
:1003D000D7FE93860704E391D5FE8280EFF25FCCCF
:1003E0002A84C14541459D3BC1454545853BC145A5
:1003F0004945AD33C1454D459533C1455145B93B9F
:10040000C1456145A13BC1456945893BC1456D4534
:10041000B133C14571459933C14575458133C145F6
:1004200079452D3BC1457D45153B4C4022854137E3
:100430000C442285AD3F95B9EFF29FC62A84453B17
:100440001C4458405CC018C48DB17300203001A01A
:10045000EFF21FC55111854505455523E1473EC0C3
:10046000C167FD178A85370500403EC2392585459D
:1004700037050040912D31010DB9B7E700E0056760
:1004800023A0E710B7F700E023A207001307F00F3F
:1004900098CB23A407003D4798C38280EFF25FC04A
:1004A0008545130500032D2B09B1EFF27FBF130122
:1004B000C1FC2A8436C0B2842EC235261306C0027F
:1004C00081452800C53E85450545E5292285212E23
:1004D000924782462C003EC4930700083ECE2285F8
:1004E0008D6736CA3ED626C602C802CC02D002D2DA
:1004F00002D402D85126054689452285E1261301FA
:10050000410365B6EFF2DFB901118545056502C00B
:1005100002C202C402C602C802CA02CC231E0100E3
:10052000C121930700020D447C808A8593078004D3
:10053000371501403EC422C2552E930700047C802B
:100540008A8593078002371501403EC422C2792E66
:10055000B70700026C00373501403ECA02C602C828
:1005600002CC231E01005D29054685453735014033
:10057000E529854537350140D92905613DB6EFF2BA
:100580003FB27111213F138541D8893D3734014075
:10059000ED357D3D853FB707024031041385C70126
:1005A00093060018138641C0A2850137B7070240A1
:1005B00085451385C701ED2C26C013050002212EA9
:1005C0006DDD13050002392E8247B7040240138502
:1005D00041D89D351385C4013924A2851385C401F2
:1005E00093060018138641C0C93585451385C4019B
:1005F000C124E1B7B7F700E023A20700138541D873
:100600009D3B73002030EFF2BFA937060020938690
:1006100041A013064600938541C0138541D8653E2D
:1006200069B4B71702409843B706FFFC611113671E
:10063000170098C3D8432166758FD8C39843B7066F
:10064000F7FEFD16758F98C39843B706FCFFFD169D
:10065000758F98C3D843C176FD16758FD8C33707F9
:100660009F0098C702C002C2984FB70601401367A7
:10067000170098CFD842518FD8C29843C166370629
:100680000200558F98C3B716024009679C42F18F4C
:100690003EC2824785073EC0924781E78247E39783
:1006A000E7FEB71702409C431397E700635807061D
:1006B00085473EC2124785476310F706B7270240B9
:1006C0009843C176FD16719B98C398431367170032
:1006D00098C3B7170240D843D8C3D843758FD8C33F
:1006E000D843C166558FD8C39843B7060001558FCC
:1006F00098C3984393166700E3DD06FED843B71608
:100700000240719BD8C3D84313672700D8C3214741
:10071000DC42B18BE39EE7FE2101828002C259BF19
:1007200001A001A001A001A001A001A001A001A0C1
:1007300001A001A001A001A001A001A001A001A0B1
:1007400001A001A001A001A001A001A001A001A0A1
:1007500001A001A001A0970100209381A10A1381AB
:100760000100170500001305A54D9705002093858E
:100770006589170600201306E68863FAC500832200
:10078000050023A0550011059105E3EAC5FE1705F4
:100790000020130525879385C1E26377B5002320E8
:1007A00005001105E36DB5FE930200087390023059
:1007B0008D4273904280970200009382A28493E25C
:1007C0003200739052301705000013058532192E40
:1007D000992EEFF01FE597020000938282DA739062
:1007E0001234730020301C4141677917F98F1CC106
:1007F000232005002322050023240500B70702401B
:1008000023260500138787006317E500D843136785
:10081000F700D8C382801387C7016316E500D84369
:100820001367070FFDB7138707036318E500D84365
:100830008566938606F0558FE9BF138747046315D5
:10084000E500D843BD66C5BF138787056316E5007D
:10085000D843B7060F00C5B71387C7066316E50070
:10086000D843B706F000C1BF13870708E314E5FAC1
:10087000D843B706000FC1B71841E177BD079451BF
:100880007D8F9C45D58F9449D58FD449D58F944D74
:10089000D58FD44DD58FD451D58F9455D58FD98F31
:1008A0001CC1DC455CC19C411CC5DC415CC582802F
:1008B0001C4189C593E717001CC1828041677917E5
:1008C000F98FDDBF1C4101C6DD8D0CC1828093C54F
:1008D000F5FFFD8DDDBFB70702409C437D8D3335AD
:1008E000A0008280B7070240C8C382809C45611186
:1008F00022C226C013F7070113F3F70001C7D8413E
:100900003363E30092211377F60F29C78323050091
:10091000014713048002930480048546B395E600E2
:10092000B376B6006392D50293122700BD46B39604
:10093000560093C6F6FFB3F37600B3125300B3E349
:100940007200639787064CC90507A146E317D7FCD9
:10095000232075001307F00F6378C7048323450035
:10096000A14613048002930480040547B312D70004
:10097000337756006394E202139726000117BD45B2
:10098000B395E50093C5F5FFB3F375003317E300A6
:10099000B363770063928702232A55008506414797
:1009A000E395E6FC232275001244824421018280F3
:1009B000E39C97F80CC949BFE39297FE23285500A2
:1009C000F1BF99C5371702405C4B5D8D48CB8280E3
:1009D000B7170240D84B1345F5FF798DC8CB8280FD
:1009E00099C5371702401C4F5D8D08CF8280B7171D
:1009F0000240984F1345F5FF798D88CF828099C5C5
:100A0000371702405C4F5D8D48CF8280B717024098
:100A1000D84F1345F5FF798DC8CF82801A218D6795
:100A200093870704B6217D8F9E21D58FD621D58F40
:100A3000F621D58F9625D58FB625D58FD625D58F7E
:100A4000F625D58FD98F1EA19E291EA982801E2131
:100A500089C593E707041EA18280C207C18393F76B
:100A6000F7FBC207C183C5BF5E2101C6DD8D4EA164
:100A7000828093C5F5FFFD8DDDBF1E213737014014
:100A8000130707C0C207C1836306E50037070040AC
:100A90006316E500BA2193F7F7F8D98FFA2193F797
:100AA000F7CFC207C183D98F1EA1DE215EB59E217B
:100AB0001EB5B7370140938707C06314F5009C2526
:100AC0001EB985475EA982801E2189C593E717005C
:100AD0001EA18280C207C183F99BC207C183CDBF1B
:100AE00082808280AA858146014601457DA0511100
:100AF000970700009387C71422C21704000013044D
:100B000024141D8C26C006C40984BE8411E412443A
:100B1000A24082443101E9B77D1493172400A697BF
:100B20009C438297E5B7511122C297070000938733
:100B3000A71017040000130424101D8C26C006C43F
:100B40000984814463958402693F97070000938775
:100B5000A70E170400001304A40E1D8C0984814401
:100B600063928402A240124482443101828013972E
:100B700024003E9718438504029797070000938747
:100B8000A70BC9B7139724003E9718438504029713
:100B9000970700009387470AE1B797F7FF1F9387EE
:100BA00067469C43AA838DE3138701DA97F7FF1FFB
:100BB00023AAE74417F5FFFF1305C544BA8709C503
:100BC0001C4123A4F1E2BA87D8437D437D55634697
:100BD000E304638D030203A38708630003049312F5
:100BE00027009A9223A0C20003250310054633165E
:100BF000E600518D2320A31023A0D20889466397D5
:100C0000D30083264310558E2322C310930617006A
:100C10000A07D4C3BA978CC70145828097F7FFFFB4
:100C20009387473E91C717050000130585EC5DBD0E
:040C300082800000BE
:080C34001C0C00000606000084
:00000001FF
