:100000006F00006E00000000480400004C04000077
:1000100000000000000000000000000000000000E0
:1000200000000000000000000000000000000000D0
:10003000AE06000000000000B00600000000000056
:10004000B2060000B4060000B6060000B8060000C4
:10005000BA060000BC060000BE060000C006000094
:10006000C2060000C4060000C6060000C806000064
:10007000CA060000CC060000CE060000D006000034
:10008000D2060000D4060000D6060000D806000004
:10009000DA060000DC060000DE06000000000000BA
:1000A000511126C022C206C4828282441244A24058
:1000B00031018280634E050263C305042E86AA8542
:1000C0007D5515C285466378B6006356C0000606A6
:1000D0008606E36CB6FE014563E4C500918D558D3F
:1000E00085820582F5FA82808682C93F2E858282CA
:1000F0003305A04063D70500B305B040C1B7B305D1
:10010000B0408682653F3305A0408282868263C705
:100110000500634905005D372E858282B305B04036
:10012000E35B05FE3305A040513F3305B0408282BA
:1001300000003D432A876373C3029377F700BDEF46
:10014000ADE5937606FF3D8ABA960CC34CC30CC747
:100150004CC74107E36BD7FE11E28280B306C34070
:100160008A069702000096966780A6002307B700CC
:10017000A306B7002306B700A305B7002305B70001
:10018000A304B7002304B700A303B7002303B700F9
:10019000A302B7002302B700A301B7002301B700F1
:1001A000A300B7002300B700828093F5F50F939664
:1001B0008500D58D93960501D58D61B7939627005F
:1001C0009702000096968682E78086FA9680C1178D
:1001D0001D8F3E96E374C3F8A5B7EFF27FEC411193
:1001E0009357354002C202C402C68D8B094763880B
:1001F000E7040D476388E70401479DEF9306F5FF89
:1002000005463E87636AD602371401401304048012
:10021000AA842EC041458545EF00E07D824713F555
:10022000740085443395A40068823EC64C008D4717
:1002300022853EC4252505473A854101BDB53714C1
:100240000140F9B73714014013040440D1B7935764
:1002500035408D8B09476388E7020D476388E702C5
:100260009DEBB717014093870780EFF27FE30547C7
:100270001D893315A7002E8693150501C1813E8582
:10028000EF00206B1DB5B7170140C5B7B717014088
:1002900093870740D9BF8280311122C826C6814585
:1002A00085473397B700939795001377F70F3EC2B2
:1002B00081461C4113937600B38367001386073091
:1002C00093870718B3846700939736001A963EC445
:1002D000014383C70300F98FB332F00083C7830063
:1002E0008A02F98FB337F0008E07B3E7F20083C2BA
:1002F0000400B3725700B33250009202B3E75700C4
:1003000083C28400B3725700B33250009602B3E741
:10031000570083420600B3725700B33250009A026E
:10032000B3E75700834286003EC0930700F8B372DC
:1003300057006393020081478322450012448503DE
:100340000506A292224485041A940E04A292024445
:100350000503C18F2380F200A147E31CF3F6850655
:10036000E39966F48505E39DD5F24244B244510118
:100370008280814713070020B386F50023800600A2
:100380008507E39BE7FE8280EFF29FD150C114C541
:100390002A840CC123160500C14541453D3DC14598
:1003A0004545253DC14549450D3DC1454D45353581
:1003B000C14551451D35C14561450535C1456545B9
:1003C000293DC1456945113DC1456D453935C14599
:1003D00071452135C14575450935C1457945F53B1F
:1003E000C1457D45DD3B4C40228561370C4422856B
:1003F0004937B7E700E0056723A0E710B7F700E04B
:10040000D843799BD8C31307F00398CB23A40700E4
:1004100023A0070098431367270098C398431367E6
:10042000470098C398431367870098C3984313679E
:10043000170098C39DB9EFF2BFC62A84B13D1C4492
:1004400058405CC018C495B17300203001A0EFF291
:100450003FC5854513050003792B81B9EFF25FC4D1
:100460001301C1FC2A842EC2B28481451306C00246
:10047000280036C07D3985450545B92B2285ED24F8
:10048000924782462C003EC4930700083ECE930755
:1004900000103ED0930700403ED2930700023ED4A6
:1004A0002285896726C636CA3ED602C802CC02D843
:1004B000A92613014103D5BEEFF29FBE0111854568
:1004C000056502C002C202C402C602C802CA02CC4A
:1004D000231E01000D231144930700028A8537155E
:1004E00001407C8022C49D2E930700048A85371525
:1004F00001407C8022C49D26A1673EC68567938704
:1005000007803EC8B70700023ECA6C009D473735DA
:100510000140FC86231D0100F52905468545373538
:1005200001403D2B854537350140312B0561B5BE76
:10053000EFF21FB77165130505203525372500003B
:10054000130545F9EF00100BB707002083A507003E
:10055000372500001305C5F9EF00E078B13F3704F7
:100560000240B73501401305C401930600181386F5
:1005700041C1B105E5351305C40185455D2C130561
:100580000002D1246DDD13050002E924138541D951
:100590005D35F5B7EFF2DFB0938641A11386418157
:1005A000938541C1138541D9C53301B6B7170240C0
:1005B0009843B706FFFC61111367170098C3D8432F
:1005C0002166758FD8C39843B706F7FEFD16758F61
:1005D00098C39843B706FCFFFD16758F98C3D843A0
:1005E000C176FD16758FD8C337079F0098C702C024
:1005F00002C2984FB70601401367170098CFD84240
:10060000518FD8C29843C16637060200558F98C3F0
:10061000B716024009679C42F18F3EC282478507A8
:100620003EC0924781E78247E397E7FEB717024053
:100630009C431397E7006358070685473EC212475D
:1006400085476310F706B72702409843C176FD1629
:10065000719B98C398431367170098C3B71702405C
:10066000D843D8C3D843758FD8C3D843C166558FF4
:10067000D8C39843B7060001558F98C39843931683
:100680006700E3DD06FED843B7160240719BD8C36E
:10069000D84313672700D8C32147DC42B18BE39EC0
:1006A000E7FE2101828002C259BF01A001A001A082
:1006B00001A001A001A001A001A001A001A001A032
:1006C00001A001A001A001A001A001A001A001A022
:1006D00001A001A001A001A001A001A001A001A012
:1006E000970100209381011B138101F7172500005A
:1006F00013054596970500209385C5901386818044
:1007000063FAC5008322050023A055001105910559
:10071000E3EAC5FE13858180938541E36377B500E5
:10072000232005001105E36DB5FE930200087390C8
:1007300002308D4273904280970200009382828C37
:1007400093E2320073905230170500001305254FD5
:10075000C5210523EFF09FE597020000938282DD1B
:1007600073901234730020301C4141677917F98F60
:100770001CC1232005002322050023240500B70700
:10078000024023260500138787006317E500D8433E
:100790001367F700D8C382801387C7016316E5008B
:1007A000D8431367070FFDB7138707036318E500E6
:1007B000D8438566938606F0558FE9BF13874704B3
:1007C0006315E500D843BD66C5BF1387870563166B
:1007D000E500D843B7060F00C5B71387C7066316F1
:1007E000E500D843B706F000C1BF13870708E3143C
:1007F000E5FAD843B706000FC1B71841E177BD0746
:1008000094517D8F9C45D58F9449D58FD449D58FF0
:10081000944DD58FD44DD58FD451D58F9455D58F38
:10082000D98F1CC1DC455CC19C411CC5DC415CC549
:1008300082801C4189C593E717001CC182804167F3
:100840007917F98FDDBFB70702409C437D8D3335A3
:10085000A0008280B7070240C8C382809C45611116
:1008600022C226C013F7070113F3F70001C7D841CE
:100870003363E30092211377F60F29C78323050022
:10088000014713048002930480048546B395E60073
:10089000B376B6006392D50293122700BD46B39695
:1008A000560093C6F6FFB3F37600B3125300B3E3DA
:1008B0007200639787064CC90507A146E317D7FC6A
:1008C000232075001307F00F6378C70483234500C6
:1008D000A14613048002930480040547B312D70095
:1008E000337756006394E202139726000117BD4543
:1008F000B395E50093C5F5FFB3F375003317E30037
:10090000B363770063928702232A55008506414727
:10091000E395E6FC23227500124482442101828083
:10092000E39C97F80CC949BFE39297FE2328550032
:10093000F1BF19C20CC982804CC98280EFF24FF618
:10094000371702405C4391462A84B18B6385D700F8
:10095000A146638DD706B7376E01938707601CC029
:10096000B7160240DC42918313F7F700B707002067
:1009700093878701BA978C23DC42184093F5F50FD3
:1009800093F707083355B70081E73A85EFF00FF387
:1009900048C008C448C4B7170240DC43AD83FD8B90
:1009A00013D737008A07F18BD98F93F637010D479C
:1009B0006373D700D1173707002013074700BA9792
:1009C0008C23EFF0AFEF08C86FF02FEE5C43B777E2
:1009D000DC02938707C061B799C5371702405C4BAB
:1009E0005D8D48CB8280B7170240D84B1345F5FF89
:1009F000798DC8CB828099C5371702401C4F5D8D19
:100A000008CF8280B7170240984F1345F5FF798DC4
:100A100088CF82801A218D6793870704B6217D8F46
:100A20009E21D58FD621D58FF621D58F9625D58FAE
:100A3000B625D58FD625D58FF625D58FD98F1EA172
:100A40009E291EA982801E2189C593E707041EA145
:100A50008280C207C18393F7F7FBC207C183C5BF7A
:100A60005E2101C6DD8D4EA1828093C5F5FFFD8D0F
:100A7000DDBFEFF2EFE21629F577FD17F58FF621CE
:100A8000DA252111D58F1EA95625FD779387379F2B
:100A9000F58FD6212A842EC0D58F9625D58FB625E1
:100AA000D58F5EA55E29C207C18393F7F7CF5D8F0F
:100AB0005AA948006135B7470140938707808245AE
:100AC0006312F406C2475A24139517003E95420755
:100AD0000E0541873E958C41635807048605EFF06B
:100AE000EFDD930540062AC0EFF04FDD82479314F7
:100AF0004500930540063E85EFF00FDF5E24C207F8
:100B0000C18763D507020E0593054006130525032B
:100B1000EFF0CFDA1D89C98CC204C18006A461013F
:100B20006FF0AFD8B24745B78A0555BF1205930598
:100B3000400613052503EFF06FD83D89E9BF91C545
:100B40005E250967D98F5EA582805A25F977FD1742
:100B5000F98FD5BF93F5F51F4EA182800A216D8DC7
:100B60003335A0008280EFF2AFD32A8411651111D2
:100B70008545130505024135930700027C80371532
:100B800001408D473EC28A85E147130505403EC4BA
:100B9000F13122C637440140B70708006C00130545
:100BA00004803ECA02C8231C0100E13585451305B7
:100BB0000480713771016FF04FCFEFF26FCE71117A
:100BC000AE840144635DC402B747014013870780C8
:100BD0003A859305000432C05137B7470140138767
:100BE0000780024675D53387840083050700138587
:100BF00007800504C205C181B13F0246E1B73285D5
:100C000011016FF08FCA37070020130787021C43BA
:100C1000938641E33E956369D500938601E763E5DA
:100C2000A60008C33E858280FD57EDBF828082808A
:100C3000AA8581460146014579A651119717000002
:100C40009387474122C2171400001304A4401D8C4F
:100C500026C006C40984BE8411E41244A240824422
:100C60003101E9B77D1493172400A6979C4382971E
:100C7000E5B7511122C2971700009387273D17143B
:100C800000001304A43C1D8C26C006C409848144C2
:100C900063958402693F971700009387273B1714D9
:100CA00000001304243B1D8C098481446392840258
:100CB000A2401244824431018280139724003E975F
:100CC0001843850402979717000093872738C9B700
:100CD000139724003E971843850402979717000046
:100CE0009387C736E1B71301C1FD3ED02EC832CA83
:100CF00036CC3ACE97F7FF1F9387C73922C480437B
:100D000026C206C6AA8409C41C4C99E32285512B2D
:100D10000C4414082686228536C0EF00301CB240F1
:100D200022449244130141028280411126C206C628
:100D300022C42EC0AA8401C5184D11E39D23984CEE
:100D4000804419E32685B12B1717000013074728A5
:100D50006312E402C0405A24218B19C3184821EFC2
:100D6000A2852685852221C97D55B2402244924420
:100D70004101828017170000130787276314E400DE
:100D80008044D1BF1717000013078722E315E4FC46
:100D9000C044D1B7824718C485073EC063580700D6
:100DA000144C634BD70229476388E5021840930629
:100DB000170014C00CA3824718448C237D17F9F93F
:100DC00018C4635207022286A94526851D28FD57AF
:100DD000E30CF5F8294551BF228626851D207D5755
:100DE000E31BE5FC51B71C401387170018C02947C7
:100DF00098A3CDB797F7FF1F9387C729AA85884384
:100E00002DB7311122C626C406C8AA87AE84328403
:100E100011C5184D01E72AC0692182471717000044
:100E20001307071B6318E406C043184C18C45A2460
:100E3000218B49C318483DCF1848084093F6F40F5A
:100E400093F4F40F198D5848634AE5003E85A28556
:100E500036C23EC00D2E824792463DE1184405053C
:100E60007D1718C418401306170010C014A3584863
:100E70006308A7005A24058B01CB29476396E40039
:100E8000A2853E8509260DEDC24032442685A24446
:100E90005101828017170000130787156314E400BF
:100EA000804761B71717000013078710E31FE4F6A8
:100EB000C047A5BF3E85A2853EC0292082472DDDC3
:100EC000FD54D9B7411197F7FF1F9387A71C26C27E
:100ED000844322C406C6AA862E8499C49C4C89E702
:100EE0002AC026857D2E8246971700009387470EDD
:100EF0006319F402C0400317C40093170701C183AC
:100F000013F687002DEA13F6070105EEA5479CC2EC
:100F1000136707045AA47D55B2402244924441010C
:100F20008280971700009387A70C6314F400804415
:100F3000D9B7971700009387A707E31EF4FAC044B8
:100F40005DBF918B8DC74C5899C993074404638644
:100F5000F500368536C045238246232A04025E24E6
:100F60002322040093F7B7FD5EA41C481CC05E2436
:100F700093E787005EA41C4899EB5E2413070020CA
:100F800093F707286385E700A2853685F9295E2453
:100F900013F717001DC35C4823240400B307F04077
:100FA0001CCC1C480145ADFB8317C40013F7070890
:100FB00025D793E707045EA4B9BF898B014791E366
:100FC000584818C4F9BF97F7FF1F9387270D9C4314
:100FD000AA838DE3138741DA97F7FF1F23A0E70C5D
:100FE00017F5FFFF13050502BA8709C51C4123A6A3
:100FF000F1E2BA87D8437D437D556346E304638DB0
:10100000030203A3870863000304931227009A9244
:1010100023A0C2000325031005463316E600518DB8
:101020002320A31023A0D20889466397D3008326E8
:101030004310558E2322C310930617000A07D4C30A
:10104000BA978CC70145828097F7FFFF938787FB8C
:1010500091C717050000130585BED9BE8280D6252D
:10106000311122C606C826C413F78600AA872E842B
:1010700071EBD841634BE000B8416348E0000145A3
:10108000C2403244A2445101828058546DDB8443F3
:101090001396360123A00700635C060670485A24A5
:1010A000118B19C75840198E585819C33840198EDA
:1010B00058540C5081463E853EC002977D575624B9
:1010C0008247631DE500904375476368C70637078D
:1010D000402005073357C700058B25C31848232236
:1010E000040018C013973601635807007D57631436
:1010F000E500984311E368C84C5884C3C9D113076D
:1011000044046384E5003E85FD26232A040285BF4E
:101110000C5001463E8585463EC002977D572A8683
:101120008247E31EE5F698433DDBF5466305D700AD
:10113000D9466312D70484C399B793E6060456A42C
:101140007D553DBF984905DF84418D8A98C1998CB2
:10115000014691E2D04910C4E35390F20323840284
:101160000C503A863E85A6863AC23EC0029382471C
:1011700012476347A0005E2493E707045EA4C9B743
:101180002A97898CD1BF9C49B9CF411122C406C688
:101190002A8411C51C4D81E72EC021228245971754
:1011A00000009387E7E2639BF5004C408397C500FE
:1011B00095C722852244B240410155B597170000DA
:1011C000938707E36394F5000C44CDB797170000AD
:1011D000938707DEE39CF5FC4C44C9BFB240224430
:1011E00001454101828001458280511122C206C41D
:1011F0002A844EA572A5232005002322050023245E
:1012000005002322050623280500232A0500232C98
:101210000500214681451305C505EFE09FF19717AD
:101220000000938727B75CD097170000938747B9D2
:101230001CD497170000938727BD5CD49717000034
:10124000938787BF00D01CD8A2401244310182800E
:1012500097050000938565F389AA41111386F5FF70
:1012600022C41314160032940A0432940E042EC0C1
:101270009305440726C206C61D26AA8409CD8247C7
:10128000232005003105232CF5FE88C413068406AF
:101290008145EFE01FEAB240224426859244410195
:1012A00082801C4DBDE3511106C422C29707000085
:1012B000938747FA1CD597F7FF1F9387E7DD9C4379
:1012C0002324050423260504232805046314F500BC
:1012D00085471CCD2A841D2848C02285052808C4BE
:1012E00022852D2048C4484001469145FD3D0844D3
:1012F0000546A545DD3D48440946C945FD358547B8
:101300001CCCA2401244310182808280411197F7A7
:10131000FF1F938767D822C4804326C206C61C4C91
:10132000AA8499E32285B53F930784048047D84374
:101330007D1763560700984331CF9C43C5BF831682
:10134000C400B1E6C17785072322040623200400E8
:1013500023220400232404005CC423280400232A3D
:101360000400232C0400214681451305C405EFE049
:101370005FDC232A0402232C0402232404042326F2
:1013800004042285B2402244924441018280130425
:10139000840679BF914526853EC0C135824788C302
:1013A00049FDB1479CC00144E9BF111122CA06CCD6
:1013B00026C8AA862E8613048504814719E4E240D4
:1013C0005244C2443E8571018280044458407D17D6
:1013D000635407000040DDB7CA24854563F3A502C6
:1013E0000395E400FD55630EB5003685A6853EC61F
:1013F0003AC436C232C00296B247224792460246EB
:10140000C98F93848406E1B7AE878395E50059714F
:10141000A6D286D6A2D4B28463DB0500DE2723A041
:10142000060093F707088DEB9307004005A8130407
:10143000F1006198228636C23EC0EF0070258247D7
:101440009246E34D05FC5840BD67F98F7977BA970E
:1014500093B717009CC2C9BF93070004B650265427
:101460009CC00145965465618280DA25211122C80D
:1014700006CA26C6098B2E8401CF930774041CC0AC
:101480001CC885475CC8D2404244B2446101828096
:1014900034005000AA848D3F92452AC0268501223F
:1014A00019E98317C40013F7072071FFF19B93E735
:1014B00027005EA4D9B7170700001307A7D998D44F
:1014C0005A2408C008C8136707085AA4124758C806
:1014D000224701CF8315E4002685EF00101E11C5B9
:1014E0005E24F19B93E717005EA45E240247B36479
:1014F000F70046A449BFDDC183A7C5FF511122C231
:1015000006C426C01384C5FF63D307003E94AA8493
:10151000EF0070219387C1809C4381EF2322040058
:1015200023A681801244A2402685824431016F00A7
:10153000B01F637EF40014403307D4006396E700C5
:101540009843DC43369718C05CC0D9BFBA87D843EC
:1015500019C3E37DE4FE94433386D700631F8600FE
:101560001040B29694C33386D700E31DC7FA1043E8
:101570005843B29694C3D8C375B76375C400B147D6
:101580009CC04DB71040B306C4006316D700144387
:101590005843B29614C058C0C0C369B78280411185
:1015A00026C293843500F19806C622C4A104B1472F
:1015B00063F7F404B14463E6B4042AC0EF00B01644
:1015C0001387C18014438247368421E41387018145
:1015D000184301EB3E8581453EC0712723A8A180B9
:1015E00082473E85A6853EC0BD2F7D578247631644
:1015F000E506314798C33E85EF00101329A0E3DCD0
:1016000004FAB1471CC10145B24022449244410151
:1016100082801840058F634F07022D466376E600EF
:1016200018C03A9404C031A058406393860223A6A0
:10163000E1803E85EF00500F1305B400130744000E
:101640006199B307E540E9D33E94098F18C06DBF97
:10165000D8C2C5B7A28640408DBF1304350071982B
:10166000E30285FCB305A4403E853EC0ED2D7D57C9
:101670008247E319E5FAB5BF1C46FD171CC663DABD
:101680000700184E63C5E700A9476394F5006FF0A3
:101690004FF71C422E851387170018C28CA3828037
:1016A000311122C626C406C8AA872E873284B30405
:1016B000D60063149400014529A80C203A863E8583
:1016C0003AC23EC0553FFD56050482471247E31219
:1016D000D5FEC2403244A24451018280130181F7F9
:1016E00022C1A6DE9307F10106C32AC032C22E84AE
:1016F00093F487FF11C5184D01E736C65D36B24633
:10170000171700001307C78C6310E40E8247C0430D
:101710005A24218B630C070E18486DCB1307000267
:1017200098BC1307000323AA0400B8AC36CA1247BA
:1017300013065002142399C26399C60E92473303CD
:10174000F7406301030202459A863E86A2853AC8A5
:101750001AC6B937FD566305D520D44832434247EF
:101760009A96D4C81423638D061E130317007D5761
:1017700023A0040023A60400D8C023A40400A3814E
:10178000040423AC04048345030015461715000028
:10179000130505881AC2EF0080771243944013079F
:1017A000130051E513F6060109C613060002A381D2
:1017B000C40413F6860009C61306B002A381C4044C
:1017C000834503001306A0026380C508D4441A872A
:1017D00081452545102313031700130606FD637882
:1017E000C50ABDC9D4C48DA81717000013074780C8
:1017F0006315E4008247804721BF170700001307E5
:10180000277BE317E4F08247C04719B70245A2855A
:1018100036C6EFF02FEBB246E30205F07D559A4055
:101820000A44F654130181088280050721B7170680
:1018300000001306E67D3306C54005453315C50097
:10184000C98E94C03A8381B7524693054600104230
:101850002ECA63470602D0C410239306E002631128
:10186000D60610339306A002631ED602D24609079D
:1018700013864600944232CA63C40602D4C089A0CB
:101880003306C04093E62600D0C494C0F1B7139746
:10189000260036970607B306C70085451A871DBF81
:1018A000FD56E9BF050723A2040081458146254571
:1018B000102313031700130606FD6377C506DDFD2D
:1018C0000C230D4617050000130505753AC2812546
:1018D000124711CD9706000093860674158D930666
:1018E0000004B396A60088400507558D88C00C23D8
:1018F00093071700194617050000130525723EC20D
:101900008CAC31252DC517E7FFFF1307A76F05EB3B
:101910009440524793F606108DC211073ACAD84830
:10192000A2473E97D8C821B51397260036970607D9
:10193000B306C70085451A87A5BF2107C5B702456D
:101940005808970600009386E6D52286A68597005C
:101950000000E70000002AC4A2477D57E391E7FC9E
:101960005A2413770704E31B07EAC8484DBD024514
:101970005808970600009386E6D22286A685052A97
:10198000D9BF011126CA3283B6849045944922CC2E
:1019900006CE2A84AE8763D3C600B2862320D30046
:1019A00003C6370401C685062320D300944393F66B
:1019B000060291C68326030089062320D30083A252
:1019C00007009383970193F26200638302069043BA
:1019D00083C6370413760602B336D00041EA138675
:1019E0003704A68522851AC43EC23AC00297FD5626
:1019F0006308D5069247224311459443032603000A
:101A0000CC47998A014302476397A6003383C540B8
:101A10006353030001439447904B6354D600918E67
:101A200036938142E9076312530601451DA88502DA
:101A3000D44703260300918EE3DBD2F885461E8649
:101A4000A68522851AC83EC616C41EC23AC0029791
:101A5000FD5602479243A242B2474243E319D5FCE6
:101A60007D55F2406244D24405618280B385D7003F
:101A700013050003A381A50483C55704138616002C
:101A80003E968906A301B60499BF85463E86A68583
:101A9000228516C61AC43EC23AC00297FD56E3011B
:101AA000D5FCB2422243924785020247ADBF1301E3
:101AB00041FD22D206D426D032C2902D36C42AC08F
:101AC000930690062E8493823504630DD60263E25A
:101AD000C60693068005630ED61863EDC60063063E
:101AE000062293063004630CD60A930424042301CF
:101AF000C4047DA8930630066303D60A9306400605
:101B0000E315D6FE1440084313F606089305450076
:101B100055C214410CC363D806001307D002B306A4
:101B2000D040A301E404170600001306A64F29477E
:101B300055A893060007630AD61663E5C602930606
:101B4000E0066301D61A9306F006E310D6FA0C40BD
:101B5000144313F30508138546006305030608C301
:101B60009442B5A093065007E303D6FE9306800780
:101B70006301D61493063007E319D6F6144313868F
:101B8000460010C38442D04181452685492619C1AB
:101B9000058D48C0584018C8A30104045DA814432B
:101BA000930424041386460010C398422301E404DE
:101BB0000547D5B713F6060414410CC329DEC20647
:101BC000C18691BF93F5050408C3D9D9962213079E
:101BD000F0066301E610170600001306A644294725
:101BE000A30104044C400CC463C5050008406D9972
:101BF00008C099E296849DC99684BA85368516CC2C
:101C000032CA3AC836C6EFE02FCE52464247B246F5
:101C100032950C21FD1436858CA0BA85EFE00FCAF1
:101C2000B24642475246E24263FCE60AA146631EC0
:101C3000D7001840058B11CB544018486347D70094
:101C400013070003A38FE4FEFD14B3829240232800
:101C500054002247924602457008A2851D337D57E5
:101C60006319E50A7D55A250125482541301C10232
:101C70008280A382C504170600001306A63A0C4012
:101C8000084313F3050814411105630D030208C34B
:101C900013F7150001C793E505020CC04147A9F2EF
:101CA0000C4093F5F5FD0CC025BF944193E6060268
:101CB00094C193068007A302D404170600001306FC
:101CC000A63775BF13F3050408C3E30303FCC2067C
:101CD000C1827DBF170600001306C634214709B72D
:101CE000AA8621BF90411443CC491373060813857B
:101CF00046006306030008C398420CC339A008C31A
:101D000013760604984275DA0EA3232804009684FD
:101D100089B7144892450245A247268682977D5787
:101D2000E302E5F41840098B1DEB72474844E35C7D
:101D3000E5F23A850DBF92450245A24785461A86CF
:101D40003AC81AC68297FD56E30ED5F04247324391
:101D5000050754447246918EE34FD7FCF9B701470B
:101D600013039401FDB7511122C22A842E8523A8A2
:101D700001E206C4EFE03FE9FD576317F5009387E2
:101D800001E39C4391C31CC0A240124431018280F4
:101D9000511122C22E848395E50006C4792263493D
:101DA00005007C48AA977CC8A24012443101828079
:101DB0005E247D777D17F98F5EA4FDB7DE25311196
:101DC00022C626C406C893F70710AA842E8432833D
:101DD000B68291CB8395E50036C232C08946014672
:101DE0000922924202435E247D777D17F98F5EA41B
:101DF0008315E4003244C2402685A24496861A86A2
:101E0000510125A8511122C22E848395E50006C4F4
:101E1000C928FD575A24631AF500FD77FD17F98F7D
:101E20005EA4A2401244310182808567D98F5EA4EE
:101E300068C8C5BF8395E50005A8511122C22A8450
:101E40002E85B285368623A801E206C4EFE0FFD6D0
:101E5000FD576317F500938701E39C4391C31CC0B2
:101E6000A240124431018280511122C22A842E855F
:101E700023A801E206C4C520FD576317F500938728
:101E800001E39C4391C31CC0A240124431018280F3
:101E9000511122C22A842E85B28523A801E206C4EC
:101EA000C920FD576317F500938701E39C4391C355
:101EB0001CC0A240124431018280511122C22A84E6
:101EC0002E8523A801E206C45D20FD576317F500A7
:101ED000938701E39C4391C31CC0A240124431018B
:101EE0008280511122C22A842E85B285368623A88B
:101EF00001E206C45920FD576317F500938701E3FB
:101F00009C4391C31CC0A24012443101828093F5CE
:101F1000F50F2A966314C500014582801C21E38ECB
:101F2000B7FE0505C5BF82808280511122C22A8476
:101F30002E85B285368623A801E206C4A920FD5766
:101F40006317F500938701E39C4391C31CC0A24033
:101F50001244310182809307800523A8F1E27D5568
:101F600082809307800523A8F1E27D558280930744
:101F7000800523A8F1E2014582809307800523A80C
:101F8000F1E27D5582809307800523A8F1E27D551B
:101F900082800000546573740000000053797374EC
:101FA000656D436C6B313A25640D0A00000000003A
:101FB0000000000000000000000000000000000021
:101FC0000000000000000000000000000000000011
:101FD0000000000000000000000000000000000001
:101FE00000000000000000000000000000000000F1
:101FF00000000000000000000000000000000000E1
:10200000000000000000000000000000232D302B25
:1020100020000000686C4C0065666745464700007C
:10202000303132333435363738394142434445460E
:1020300000000000303132333435363738396162D0
:08204000636465660000000006
:0820480048100000940500009F
:10205000006CDC020204060804080C1008101820AA
:10206000102030402040608001020304050607086C
:102070000102030405060708C40600200000000052
:10208000CC1F0000EC1F0000AC1F0000000000008F
:102090000000000000000000000000000000000040
:1020A0000000000000000000000000000000000030
:1020B0000000000000000000000000000000000020
:1020C0000000000000000000000000000000000010
:1020D0000000000000000000000000000000000000
:0820E0002C0000202C00002060
:00000001FF
