:100000006F00E06A000000007E040000820400002F
:1000100000000000000000000000000000000000E0
:1000200000000000000000000000000000000000D0
:100030004C050000000000007E06000000000000EB
:10004000800600008206000084060000860600008C
:10005000880600008A0600008C0600008E0600005C
:10006000900600009206000094060000960600002C
:10007000980600009A0600009C0600009E060000FC
:10008000A0060000A2060000A4060000A6060000CC
:10009000A8060000AA060000AC0600000000000050
:1000A000511126C022C206C4828282441244A24058
:1000B000310182802A86014593F6150091C232955E
:1000C00085810606F5F982800000EFF27FFD41117F
:1000D0001357354002C202C402C60D8B8946AA845A
:1000E0006306D7048D466307D704014515EF938651
:1000F000F4FF05463A856369D6023714014011457D
:10010000130404802EC08545EF00E07093F774005F
:1001100002478544B397F4007C8222858D474C00CA
:100120003AC63EC4312D0545410141B7414537141A
:100130000140C9BF371401401305000213040440F5
:10014000D1B72316050023280500232A05000CC17A
:1001500050C114C58280EFF2BFF42A84C1454145E5
:10016000AD37C14545459537C1454945B93FC145BD
:100170004D45A13FC1455145893FC1456145B13715
:10018000C14569459937C1456D458137C1457145BF
:100190002D3FC1457545153FC14579453D37C145A1
:1001A0007D4525374C402285592C0C442285412C15
:1001B000EDBD311122C826C681428547B39657004E
:1001C0009397620093F6F60F3EC2814593974500E0
:1001D0003EC09397350001463EC482470323050085
:1001E00093048600B303F3003384C300A69383C74C
:1001F00003001820F58F758F1337170093B717007A
:100200008A070E075D8F83470408F58F93B71700A1
:100210009607D98F03C7030883430410758F1337DC
:1002200017001207B3F37600D98F014763940300D8
:10023000130700F8D98F024712443A9326930347D5
:10024000031003234500758F2293224413371700B0
:100250001A0722933293D98F2300F3000506A14792
:10026000E31DF6F68505E393C5F68502E397B2F440
:100270004244B24451018280411122C60008232821
:10028000A4FE832704FFDC273E879307F0073397FC
:10029000E700B7F700E098CB832704FF9847832750
:1002A00004FFDC279A073E97832704FFDC378E077D
:1002B000BA97232AF4FE832744FF9823B7170140F7
:1002C00093870740D8C7B717014093870740054772
:1002D00098CB832744FF85079823B717014093875E
:1002E0000740D8C7B717014093870740054798CB09
:1002F000832744FF89079823B71701409387074056
:10030000D8C7B717014093870740054798CB832785
:1003100044FF8D079823B717014093870740D8C73C
:10032000B717014093870740054798CB832744FFC1
:1003300091079823B717014093870740D8C7B7178D
:10034000014093870740054798CB832744FF9507D3
:100350009823B717014093870740D8C7B7170140C4
:1003600093870740054798CB832744FF9907982335
:10037000B717014093870740D8C7B7170140938745
:100380000740054798CB832744FF9D079823B7175D
:10039000014093870740D8C7B717014093870740AC
:1003A000054798CBB71701402147D8CBB717014075
:1003B000414798CB832704FFDC3793E7870113F786
:1003C000F70FB7170140D8C7A30D04FE0347B4FFCA
:1003D000A54763E8E7008347B4FF8507A30DF4FE54
:1003E000F5B7832704FFDC37850713F7F70F83275B
:1003F00004FFD8B7832704FFD8379D4763F9E70286
:10040000832704FFA3860700832704FFDC278507D3
:1004100013F7F70F832704FFD8A7832704FFD827F4
:100420009D4763F6E700832704FF23860700B7177D
:1004300001404147D8CB010032444101828093867C
:100440000504715793850524938706FC98A398B3F8
:10045000B8A3B8B3D8A3D8B3F8A3F8B3A107E39768
:10046000D7FE93860704E391D5FE8280EFF25FC347
:100470002A8481331C4458405CC018C43DB17300C9
:10048000203001A0EFF2DFC1056421111307050838
:10049000130404FD3AC01844AA873AC258443AC427
:1004A0003E8781441245A245A68216CA3EC83AC676
:1004B000638D0200104C544C4126D2423247C24751
:1004C0001383F2FF9372F30FCDB7544010408504AD
:1004D00093F4F40F9526EF00D00D32471375F50F06
:1004E000C14608A32300A7082300A710C247050799
:1004F000E39AD4FA0247C107E394E7FA610175B6BB
:10050000B7E700E0056723A0E710B7F700E023A2F4
:1005100007001307F00798CB23A407003D4798C3B3
:100520008280EFF2FFB7854513050003ED24B5BEC9
:10053000EFF21FB7FD37138541D83139D137138515
:1005400041C08937138541D8153701A0B7F700E0BE
:1005500023A20700138541D8053373002030EFF242
:100560003FB437060020938641A0130646009385CA
:1005700041C0138541D8F1360DBEB71702409843EC
:10058000B706FFFC61111367170098C3D8432166B3
:10059000758FD8C39843B706F7FEFD16758F98C3BD
:1005A0009843B706FCFFFD16758F98C3D843C176F4
:1005B000FD16758FD8C337079F0098C702C002C2C7
:1005C000984FB70601401367170098CFD842518F54
:1005D000D8C29843C16637060200558F98C3B71634
:1005E000024009679C42F18F3EC2824785073EC0A8
:1005F000924781E78247E397E7FEB71702409C43A3
:100600001397E7006358070685473EC212478547A0
:100610006310F706B72702409843C176FD16719B19
:1006200098C398431367170098C3B7170240D8437D
:10063000D8C3D843758FD8C3D843C166558FD8C3A4
:100640009843B7060001558F98C3984393166700E7
:10065000E3DD06FED843B7160240719BD8C3D843EA
:1006600013672700D8C32147DC42B18BE39EE7FE26
:100670002101828002C259BF01A001A001A001A0F6
:1006800001A001A001A001A001A001A001A001A062
:1006900001A001A001A001A001A001A001A001A052
:1006A00001A001A001A001A001A001A001A097014B
:1006B00000209381211513810100171500001305F7
:1006C00065A8970500209385E5931706002013067B
:1006D000669363FAC5008322050023A05500110527
:1006E0009105E3EAC5FE170500201305A591938542
:1006F00081E26377B500232005001105E36DB5FEA7
:1007000093020008739002308D42739042809702EA
:1007100000009382228F93E23200739052301705CB
:1007200000001305A576A12FEF008079EFF0FFE41C
:1007300097020000938202E073901234730020301D
:100740009C45611122C226C013F7070113F3F7007D
:1007500001C7D8413363E30092211377F60F29C70D
:100760008323050001471304800293048004854617
:10077000B395E600B376B6006392D50293122700D4
:10078000BD46B396560093C6F6FFB3F37600B31298
:100790005300B3E37200639787064CC90507A1466F
:1007A000E317D7FC232075001307F00F6378C70405
:1007B00083234500A1461304800293048004054767
:1007C000B312D700337756006394E20213972600E2
:1007D0000117BD45B395E50093C5F5FFB3F375006B
:1007E0003317E300B363770063928702232A55002F
:1007F00085064147E395E6FC2322750012448244B6
:1008000021018280E39C97F80CC949BFE39297FECF
:1008100023285500F1BF99C5371702401C4F5D8D45
:1008200008CF8280B7170240984F1345F5FF798DA6
:1008300088CF828082808280130181FC93D345011E
:1008400026D6AA879394C50006DA22D813F5F37F3B
:10085000B180FD8175C91307F07F6301E51A13D7D5
:10086000D7018E04D98C37078000458F1394370049
:10087000930715C03AC43EC08144014393D3460157
:100880009397C60093F3F37FB282B183FD82638FA7
:1008900003101307F07F6385E3048E071357D60117
:1008A0005D8FB70780005D8F8247938313C09312DB
:1008B00036009E973EC001458243B3C7D5003E86B1
:1008C00085033EC21EC6BD4763E597189707000023
:1008D0009387C7728A04BE9483A304009E9782877D
:1008E00033E7C70002461306F67F32C063140714CD
:1008F00093E4240081420945C1B702C21307F07F87
:10090000B707080001449246B2072285D2504254EC
:100910005207B183FE06D98FD58FB254BE8513011D
:100920008103828036863AC416842A838947630C01
:10093000F3108D47E303F3FC854732C26318F34697
:10094000014781470144C1B733E7F4003AC471CF8E
:1009500036C632C4638D043626853EC22EC04D296C
:10096000824592472246B246AA83130755FF754532
:10097000138483FF198DB394840033D5A7003367A4
:1009800095003AC4339487001305D0C0B30775406F
:1009900093D346013EC093F3F37F9397C6008144FF
:1009A0000143B282B183FD82E39503EE33E7C700D2
:1009B0002DC36386072E3E8532CC36CA1AC82EC692
:1009C0003EC2B9219247B2454243D2466246AA830B
:1009D000130755FF7545938283FF3307E540B397AF
:1009E00057003357E6005D8FB3125600824701452A
:1009F000B38377409387D3C03EC07DBD3E84C58F0F
:100A00003EC489EF9307F07FA14401443EC00943EF
:100A1000B5B593E414008142054579BD9307F07F95
:100A200026C43EC0B1440D4391BD9144014402C06F
:100A30000543A9B593E434003E870D45B5BD89470C
:100A40002E86E318F3EE32C21307F07F814701448C
:100A50005DBDC1649386F4FFB377D400B3F6D200D2
:100A6000B68336D0418093D202013E85B685EFF041
:100A70006FE42A8316C896853E85EFF0AFE3AA821D
:100A80009E852285EFF00FE3AA83C2452285EFF011
:100A90006FE2935603019E92B6922ACC63F57200E0
:100AA000B306950036CCC1639384F3FFB3F692008E
:100AB00033739300C206F98C9A96418393D2020154
:100AC00036CE3A833E85A685EFF0CFDE2A871ACA56
:100AD0009A853E85EFF00FDEAA87A6852285EFF086
:100AE0006FDD2A83D2452285EFF0CFDC93560701D4
:100AF0009A97B69763F367001E9541641306F4FF57
:100B0000B3F5C700718FC20593D60701B387E5001F
:100B1000A2458253AA9633F7C5003ED496973EC4A9
:100B200036D293D705013A859E85EFF0AFD82A8358
:100B3000C2453A85EFF00FD8AA829E853E85EFF038
:100B40006FD7AA83C2453E85EFF0CFD693560301F7
:100B50009E92B69263F372002295C166FD16B3F3BE
:100B6000D2003373D30093D20201C2033384A200B4
:100B70009A933A85A685EFF0EFD32A83D2453A853A
:100B8000EFF04FD32A87A6853E85EFF0AFD2AA8239
:100B9000D2453E85EFF00FD29357030116973E974B
:100BA00063745700C1663695C166FD16B377D700EA
:100BB000C207B376D3002246E2451253BE96A2572F
:100BC0002E969A96B334F600B38796001E96B38598
:100BD0008700B3337600B3827500B3B66600B3B74F
:100BE0009700DD8EB3B58500B3B372004183F24741
:100BF000BA96B3E375009E96131396003695336448
:100C0000F300260593D77201B366F50033348000F4
:100C10005D82518CA60236C49397760033645400EB
:100C200063DE07009357140005885D8C93D7160088
:100C30003EC4B2471397F601598C3EC082471387D2
:100C4000F73F635BE00A9377740091CF9377F400EA
:100C50009146638AD700A2469307440033B48700C5
:100C6000A29636C43E84A2469397760063DA0700C4
:100C7000B70700FFFD17F58F3EC482471387074073
:100C80009307E07F63CFE710A247935634001377B2
:100C9000F77F1394D701A607558CB183ADB1328588
:100CA0003ECC36CA1AC82EC632C29D221307550141
:100CB000F142930305021246B2454243D246E2474F
:100CC000E3DAE2D061153317A600814205B33E8511
:100CD0002EC23EC0352A1307550171439303050206
:100CE000824792452246B246E353E3C86115B39763
:100CF000A7003EC4014449B98547998F39E70247A7
:100D000022461305E7413317A4003315A6003354D8
:100D1000F4003337E000498C598C937674003357D4
:100D2000F60081CE9377F40091466388D70093074D
:100D3000440033B4870022973E849317870063DA18
:100D400007040547814701447DBE93068003E3C93C
:100D5000F6BEFD46E3D5F6FA224685563387E640D1
:100D6000930600023357E6006388D70082479387D3
:100D7000E743B317F6005D8C33348000598C13774A
:100D80007400814719CB9377F40091460147E390B3
:100D9000D7FA93179700B18376070D80598C0147D6
:100DA0009DB61307F07F81470144B1BEB2473EC0F4
:100DB00071B593D74501370310001307F3FF93F77D
:100DC000F77F9306E03F3376B700FD81014763D399
:100DD000F60099C13A8582809306E0417D57E3CBC6
:100DE000F6FE930630439D8EFD453367660063CA69
:100DF000D5009387D7BE3317F7003355D500498FF9
:100E0000D1BF13053041B307F5403357F700D9B7C9
:100E1000C167637CF5029307F00F1307000263EBD1
:100E2000A7009707000093876721AA9788233305B7
:100E3000A740828021819707000093872720AA97E7
:100E4000882361473305A7408280B7070001636D9F
:100E5000F5006181970700009387471EAA978823B2
:100E600021473305A740828041819707000093877F
:100E7000E71CAA97882341473305A7408280AA85AB
:100E800081460146014545A8511197070000938707
:100E9000672B22C2170400001304C42A1D8C26C02D
:100EA00006C40984BE8411E41244A2408244310184
:100EB00051B27D1493172400A6979C438297E5B7FF
:100EC000511122C29707000093874727170400009B
:100ED0001304C4261D8C26C006C40984814463966D
:100EE0008402EFF05F95970700009387272517048A
:100EF0000000130424251D8C09848144639284021C
:100F0000A2401244824431018280139724003E970C
:100F10001843850402979707000093872722C1B7DB
:100F2000139724003E971843850402979707000003
:100F30009387C720E1B797F7FF1F9387A70C9C43C0
:100F4000AA838DE31387C1D997F7FF1F23ACE70A64
:100F500017F5FFFF1305050BBA8709C51C4123A22E
:100F6000F1E2BA87D8437D437D556346E304638D40
:100F7000030203A3870863000304931227009A92D5
:100F800023A0C2000325031005463316E600518D49
:100F90002320A31023A0D20889466397D300832679
:100FA0004310558E2322C310930617000A07D4C39B
:100FB000BA978CC70145828097F7FFFF9387870414
:100FC00091C717050000130565EC55BD8280000030
:100FD0000000000000E06F40000000000000F03F53
:100FE000000000000000B03F1A0AE93A9EA0E63F68
:100FF00000000000000018405AFAFFFF2EF9FFFF22
:101000002EF9FFFF2CF9FFFF34F9FFFF34F9FFFF42
:1010100002F9FFFF2CF9FFFF34F9FFFF02F9FFFF90
:1010200034F9FFFF2CF9FFFF46FAFFFF46FAFFFFF6
:1010300046FAFFFF02F9FFFF000102020303030368
:101040000404040404040404050505050505050558
:101050000505050505050505060606060606060638
:101060000606060606060606060606060606060620
:101070000606060606060606070707070707070708
:1010800007070707070707070707070707070707F0
:1010900007070707070707070707070707070707E0
:1010A00007070707070707070707070707070707D0
:1010B00007070707070707070808080808080808B8
:1010C00008080808080808080808080808080808A0
:1010D0000808080808080808080808080808080890
:1010E0000808080808080808080808080808080880
:1010F0000808080808080808080808080808080870
:10110000080808080808080808080808080808085F
:10111000080808080808080808080808080808084F
:10112000080808080808080808080808080808083F
:08113000080808080808080877
:08113800B80F00005E05000085
:00000001FF
